{
  "contractName": "SimpleStorage",
  "abi": [
    {
      "constant": false,
      "inputs": [
        {
          "name": "x",
          "type": "uint256"
        }
      ],
      "name": "set",
      "outputs": [],
      "payable": false,
      "stateMutability": "nonpayable",
      "type": "function",
      "signature": "0x60fe47b1"
    },
    {
      "constant": true,
      "inputs": [],
      "name": "get",
      "outputs": [
        {
          "name": "",
          "type": "uint256"
        }
      ],
      "payable": false,
      "stateMutability": "view",
      "type": "function",
      "signature": "0x6d4ce63c"
    }
  ],
  "bytecode": "0x608060405234801561001057600080fd5b5060ec8061001f6000396000f3fe6080604052600436106049576000357c0100000000000000000000000000000000000000000000000000000000900463ffffffff16806360fe47b114604e5780636d4ce63c146085575b600080fd5b348015605957600080fd5b50608360048036036020811015606e57600080fd5b810190808035906020019092919050505060ad565b005b348015609057600080fd5b50609760b7565b6040518082815260200191505060405180910390f35b8060008190555050565b6000805490509056fea165627a7a723058205b773f247ddac0841a86e974c0e2e95ba4cd50dc1b0f303299d7d0df8a23d8ce0029",
  "source": "pragma solidity ^0.5.0; //The version can be found by typing \"truffle version\", we need to put caret to match all the supporting versions of the solidity\r\n\r\ncontract SimpleStorage { //generic smart contract by default\r\n  uint ipfsHash;\r\n\r\n  function set(uint x) public {\r\n    ipfsHash = x; //used to set the ipfsHash in an unsigned datatype x\r\n  }\r\n\r\n  function get() public view returns (uint) {\r\n    return ipfsHash; //used to retrive the ipfsHash in the form of an unsigned datatype\r\n  }\r\n}\r\n",
  "sourcePath": "C:/xampp/htdocs/ipfs_creditcoin/contracts/SimpleStorage.sol",
  "compiler": {
    "name": "solc",
    "version": "0.5.0+commit.1d4f565a.Emscripten.clang"
  },
  "schemaVersion": "3.0.6",
  "updatedAt": "2019-03-30T20:03:15.596Z",
  "devdoc": {
    "methods": {}
  },
  "userdoc": {
    "methods": {}
  }
}